:100000000C946F010C9497010C9497010C94970138
:100010000C9497010C9497010C9497010C94970100
:100020000C9497010C9497010C94C0040C94320525
:100030000C9497010C9497010C9497010C949701E0
:100040000C9497010C9497010C9497010C949701D0
:100050000C9497010C9497010C9497010C94BF0891
:100060000C9497010C9497010C9497010C949701B0
:100070000C9497010C9497010C9497010C949701A0
:100080000C9497010C9497010C9497010C94970190
:100090000C9497010C9497010C9497010C94970180
:1000A0000C9497010C9497010C949701C102C4021F
:1000B000B302B702BD02E502E502E502C802CC02C6
:1000C000D002D602DA02E502E0021A0E1F0E2A0E54
:1000D0002F0E340E390E3E0E430E480E4D0E520EAC
:1000E000550E580E5B0E600E630E680E0000000089
:1000F000000000002A2B2800000000000000000083
:100100000000000000000000000000002C9EB4A0D1
:10011000A1A2A434A6A7A5AE362D3738271E1F20CE
:10012000212223242526B333B62EB7B89F84858693
:100130008788898A8B8C8D8E8F90919293949596D7
:100140009798999A9B9C9D2F3130A3AD3504050655
:100150000708090A0B0C0D0E0F10111213141516B7
:100160001718191A1B1C1DAFB1B0B5000000000014
:10017000240027002A002D00300000000000250088
:1001800028002B002E003100000000002300260074
:1001900029002C002F0004040404040304050202B7
:1001A0000202040302020202060606060606040410
:1001B00002020204040408020110408040102040A2
:1001C000804080080204018040201002011080104D
:1001D000204040200000000200090F00000304013D
:1001E000000C000000000000000000000000000003
:1001F000000000080B0002020201000904000001D7
:10020000020200000524001001052401010104245C
:1002100002060524060001070581031000400904B9
:100220000100020A00000007050202400000070565
:1002300083024000000403090441726475696E6F13
:10024000204C4C430041726475696E6F204D6963A8
:10025000726F00120100020000004041233780004D
:10026000010102030112010002EF020140412337A4
:10027000800001010203017069727A6B73746C75FE
:100280007D777C7B79710005010906A10185020556
:100290000719E029E7150025017501950881020578
:1002A0000C95017508150026FF00190029FF810033
:1002B000050795067508150026E700190029E7814E
:1002C00000C0050C0901A1018504150026FF0319D2
:1002D000002AFF03950475108100C000C30B112490
:1002E0001FBECFEFDAE0DEBFCDBF11E0A0E0B1E08E
:1002F000E8E5FDE102C005900D92A434B107D9F7FD
:1003000022E0A4E4B1E001C01D92A030B207E1F701
:1003100011E0CFE6D1E004C02197FE010E949F0EBC
:10032000CE36D107C9F70E94600C0C94AA0E0C942B
:100330000000409175015091760120917301309138
:10034000740142175307B4F49091E8009570E1F3FB
:100350009091E80092FD19C08093F10080917501A1
:100360009091760101968F739927892B19F48EEF5E
:100370008093E800809175019091760101969093A9
:1003800076018093750181E0089580E00895CF9211
:10039000DF92EF92FF920F931F93CF93DF931F9201
:1003A000CDB7DEB7182F062FE42E862F880F8E5F6D
:1003B00099830E94990183E00E949901F12EC12E38
:1003C0009981D92E8C2D8F19801798F4F601E7FEAC
:1003D00002C0849101C080810E949901182F80E0A1
:1003E0000E9499018123FFEFCF1ADF0A8111EACF22
:1003F00001C081E00F90DF91CF911F910F91FF908D
:10040000EF90DF90CF900895DF92EF92FF920F93DD
:100410001F93CF93DF93D82E8A017B01E40EF51E44
:10042000EB01CE15DF0571F0D7FE03C0FE0184910C
:1004300001C088810E94990121968111F2CF8FEF2E
:100440009FEF01C0C801DF91CF911F910F91FF90E5
:10045000EF90DF900895615030F02091F100FC01A1
:1004600020830196F8CF289A84E680937B01089533
:10047000CF92DF92EF92FF920F931F93CF93DF9370
:100480006C017A018B01C0E0D0E0CE15DF0589F068
:10049000D8016D918D01D601ED91FC910190F08113
:1004A000E02DC6010995892B11F47E0102C0219629
:1004B000ECCFC701DF91CF911F910F91FF90EF908B
:1004C000DF90CF90089580916A0181110DC082E084
:1004D0008093660184E08093670110926901109215
:1004E000680181E080936A0186E691E008950F93A8
:1004F0001F93CF93DF931F92CDB7DEB782E089833E
:1005000042E450E063EF71E080E80E9404020E9440
:100510006302DC0112960D911C91139701151105D0
:1005200069F0D801ED91FC910280F381E02DBE01CC
:100530006F5F7F4FC801099597FF07C089810F90B2
:10054000DF91CF911F910F910895F80100851185DA
:10055000E5CF90E0FC013197EF30F105B0F5EA5AB4
:10056000FF4F0C949F0E809180008F7703C0809185
:1005700080008F7D80938000089580918000877F28
:10058000F9CF84B58F7702C084B58F7D84BD08957F
:10059000809190008F7707C0809190008F7D03C07D
:1005A00080919000877F8093900008958091C00093
:1005B0008F7703C08091C0008F7D8093C000089525
:1005C0008091C200877F8093C2000895CF93DF930C
:1005D000282F30E0F901EC52FE4F8491F901EB54E1
:1005E000FE4FD491F901EA56FE4FC491CC2391F00D
:1005F00081110E94A902EC2FF0E0EE0FFF1FE857D7
:10060000FE4FA591B491EC91ED2381E090E021F4AF
:1006100080E002C080E090E0DF91CF9108951F93C9
:10062000CF93DF93282F30E0F901EC52FE4F8491F5
:10063000F901EB54FE4FD491F901EA56FE4FC491F3
:10064000CC23C9F0162F81110E94A902EC2FF0E0F3
:10065000EE0FFF1FE658FE4FA591B4918FB7F894A7
:10066000111105C09C91ED2FE095E92302C0EC919A
:10067000ED2BEC938FBFDF91CF911F9108953FB782
:10068000F8948091620190916301A0916401B0910E
:10069000650126B5A89B05C02F3F19F00196A11D45
:1006A000B11D3FBFBA2FA92F982F8827820F911D08
:1006B000A11DB11DBC01CD0142E0660F771F881F4F
:1006C000991F4A95D1F70895DC01FB0112968C9190
:1006D000129790E02481358182179307D1F491819C
:1006E0008081813A31F481E0913091F0933089F446
:1006F00011C0813271F49B3021F482811F968C935A
:1007000005C09A3031F4828150968C9381E008952F
:10071000089580E00895DC01FB0188E4808389E48A
:10072000818384E482831D969C911D979F709F5BBB
:1007300093831D968D919C911E9724E096958795A5
:100740002A95E1F78F708F5B848385E00895EF929F
:10075000FF920F931F93CF93DF93FB0120812138EA
:1007600051F52381223239F5DC0112962C9130E0CB
:100770004481558142175307F1F4EC010B851C8528
:10078000E12CF12C0115110591F0F80144815581FE
:100790006281738180E80E9404028F3FFFEF9F0710
:1007A00069F0E80EF91ED8010D911C91EBCF81E0A4
:1007B0008F87C70105C080E090E002C08FEF9FEFF8
:1007C000DF91CF911F910F91FF90EF900895CF93FC
:1007D000DF93CDB7DEB769970FB6F894DEBF0FBED3
:1007E000CDBFFC01DB018C918F5F8C93BE016F5FED
:1007F0007F4F89E1DB011D928A95E9F729E0298382
:1008000084E08A8391E09D8383E08E832A8721E2BE
:100810002B879C879D879F8722E2288B27E02B8B45
:1008200025E02C8B8E8B20E430E0388F2F8B998F36
:1008300082818B8395858685998B8A8B838180685D
:100840008D8B49E150E080E00E94040269960FB66A
:10085000F894DEBF0FBECDBFDF91CF910895FC01AC
:1008600082818F5BFB01808381E00895FC013496D7
:100870009C01245F3F4F80E090E040814111019650
:100880001192E217F307C9F70895FC0120E2260F41
:100890002830F0F0DC01169620E030E08D91442302
:1008A00049F0861304C0E20FF31F668326C081114E
:1008B00007C0F9CF861304C0E20FF31F16821DC0D4
:1008C0002F5F3F4F2630310549F780E090E00895D3
:1008D0003481442349F081E090E001C0880F2A95DB
:1008E000EAF7832B848309C041E050E001C0440F44
:1008F0002A95EAF740954323448381E090E00895E8
:10090000EF92FF920F931F93CF93DF93E62FF0E0C8
:10091000E038F10540F021E030E0DC0113963C9333
:100920002E93129722C0D42F7C01E451FF4FC49123
:10093000DC01ED91FC916C2F6F770084F185E02D47
:1009400009958C01C7FF13C0892B11F4D1110DC07B
:10095000D701ED91FC910084F185E02D4D2F61EEE2
:10096000C7010995802B912B02C080E090E0DF91B8
:10097000CF911F910F91FF90EF9008950E94A50EC7
:100980001F920F920FB60F9211248F939F93809115
:10099000E1009091E100937F9093E10083FF0FC00D
:1009A0001092E90091E09093EB001092EC0092E33A
:1009B0009093ED0010927C0198E09093F00082FFFC
:1009C00020C093E09093E9009091F200992319F0F0
:1009D0009AE39093E80090917701992339F09091F0
:1009E0007701915090937701992389F190917B0140
:1009F000992339F090917B01915090937B01992339
:100A000041F184FF10C08091E2008E7E816080936E
:100A1000E2008091E1008F7E8093E1008091790176
:100A20008E7E806111C080FF16C08091E2008E7EB4
:100A300080618093E2008091E1008E7E8093E100EE
:100A4000809179018E7E81608093790104C05D98E8
:100A5000CDCF2898D6CF9F918F910F900FBE0F903A
:100A60001F9018951F920F920FB60F921124CF92DC
:100A7000DF92EF92FF920F931F932F933F934F9329
:100A80005F936F937F938F939F93AF93BF93EF93F6
:100A9000FF93CF93DF93CDB7DEB76C97DEBFCDBFAB
:100AA0001092E9008091E80083FFFAC168E0CE016E
:100AB00045960E942B0282EF8093E8008D8987FF84
:100AC00005C09091E80090FFFCCF03C09EEF90938B
:100AD000E800982F907609F0C6C09E892F89188D5E
:100AE00091110CC0803829F480917A018093F10033
:100AF00002C01092F1001092F10047C1422F50E065
:100B0000512B913051F4811140C14130510509F010
:100B10003CC180917A018D7F0BC0933061F48111CB
:100B200034C14130510509F030C180917A018260B1
:100B300080937A012AC1953041F48091E80080FFCA
:100B4000FCCF20682093E30020C1963009F05FC0FD
:100B5000EB8CFC8C1092E9001092760110927501DA
:100B6000123091F510927401109273010E94770275
:100B700099E0BE016F5F7F4FDB01E92F1D92EA957F
:100B8000E9F799831A8391E09E8390EA98879AEF18
:100B900099872091750130917601275F3F4F3C8303
:100BA0002B838D831092E9001092760110927501CB
:100BB000F0927401E092730149E050E080E00E94FD
:100BC00004020E947702E1C0F0927401E092730186
:100BD0000E946302DC011296ED90FC901397E114E1
:100BE000F10409F4C0C0D701ED91FC910480F581B6
:100BF000E02DBE016B5E7F4FC7010995009719F08C
:100C00000CF0C3C0C6C0F701E084F184E8CF973090
:100C100009F4BFC0983021F481E08093F100B5C0A1
:100C2000993009F0B2C0837009F0B3C0E1E0F1E09F
:100C300081E021E036E39081992361F08093E9001F
:100C40002093EB0091919093EC003093ED008F5F37
:100C5000873089F78EE78093EA001092EA008F8947
:100C600080937C0192C08B8D9C8D1092E900109234
:100C70007601109275019093740180937301898DB0
:100C8000811156C08E899D89913A59F4813209F0BB
:100C900080C047E050E06CE071E080E00E94040218
:100CA00074C0913209F075C0833289F4888D90E068
:100CB000982F88272F89822BA0E0B0E0809307012E
:100CC00090930801A0930901B0930A015EC080329D
:100CD00069F48091E80082FFFCCF67E08CE091E04E
:100CE0000E942B028BEF8093E80006C0823209F04D
:100CF0004CC08F898093130180917801882319F06B
:100D0000EEEFFAE002C0E0E0F8E080910C01909193
:100D10000D01A0910E01B0910F01803B9440A105FF
:100D2000B10509F088C08091130180FFA0C083C085
:100D30000E946302DC0112960D911C91139701151C
:100D4000110539F1D801ED91FC910190F081E02D70
:100D5000BE016B5E7F4FC8010995811116C0F80175
:100D600000851185ECCF1130C1F0133091F48F89DB
:100D7000882309F455C08230E9F440E86DE085E449
:100D800092E00E94C701882321F08EEF8093E80053
:100D900087C081E28093EB0083C08B8D9C8D089788
:100DA00011F41093720180917201811136C063E5D4
:100DB00072E038C0813029F440E86BE089E392E0CA
:100DC000E0CF833031F70E946302DC011296ED9090
:100DD000FC9013978E010F5F1F4F6801E114F1041F
:100DE00079F0D701ED91FC910680F781E02DB801F3
:100DF000C7010995080F111DF701E084F184EECFBA
:100E0000D8011C92F60101900020E9F73197BF014B
:100E10006C197D0940E0C601B4CF65E672E002C0FE
:100E200065E372E06115710509F4B3CFFB014491EC
:100E300050E080E833CF0FB6F894A8958091600019
:100E4000886180936000109260000FBEA895EE3F0D
:100E50002AE0F20739F08091FE0A9091FF0A91830F
:100E6000808393CF1092FF0A1092FE0A8ECFEE3F3E
:100E70008AE0F80731F0808191819093FF0A809396
:100E8000FE0A87E797E7918380839BE088E10FB6AE
:100E9000F894A895809360000FBE9093600075CF82
:100EA0006C960FB6F894DEBF0FBECDBFDF91CF9129
:100EB000FF91EF91BF91AF919F918F917F916F9132
:100EC0005F914F913F912F911F910F91FF90EF9064
:100ED000DF90CF900F900FBE0F901F901895CF937B
:100EE000DF9390E0FC01EB54FE4F2491FC01EA56A5
:100EF000FE4F8491882361F190E0880F991FFC01D7
:100F0000E459FE4FC591D491FC01E658FE4FA591DE
:100F1000B491611109C09FB7F8948881209582230C
:100F20008883EC912E230BC0623061F49FB7F89454
:100F30003881822F809583238883EC912E2B2C93EC
:100F40009FBF06C08FB7F894E8812E2B28838FBFF0
:100F5000DF91CF9108958F929F92AF92BF92CF92DF
:100F6000DF92EF92FF926B017C010E943F034B01E5
:100F70005C01C114D104E104F104F1F00E943F03CB
:100F8000DC01CB0188199909AA09BB09883E934065
:100F9000A105B10570F321E0C21AD108E108F108FA
:100FA00088EE880E83E0981EA11CB11CC114D104E8
:100FB000E104F10419F7DDCFFF90EF90DF90CF90BF
:100FC000BF90AF909F908F9008958F929F92AF9215
:100FD000BF92CF92DF92EF92FF920F931F93CF9326
:100FE000DF9300D01F92CDB7DEB7382F8B018091F1
:100FF0007C01811103C08FEF9FEF7DC0809179014B
:1010000080FF05C08091E00082608093E0004A018B
:101010008AEFF82E832F8770E82E9FE3C92E832F47
:101020008072B82E2AE3D22E832F8074A82E8114CA
:10103000910409F457C08FB7F894E092E9009091B9
:10104000E80095FF05C09091F2002C2D291B01C0EE
:1010500020E08FBF211110C0FA94FF2061F261E0FF
:1010600070E080E090E039834A835B830E94AB07A5
:1010700039814A815B81DBCF822F90E08816990607
:101080000CF4282D6FB7F894E092E9008091E80005
:1010900085FF26C0822F90E0881A990ABB2029F08C
:1010A0002150A8F01092F100FBCFF80137FF07C0E4
:1010B000215058F074917093F1003196F9CF21507E
:1010C00020F071917093F100FACF080F191F8091F1
:1010D000E80085FF0DC08114910411F4A11008C02F
:1010E0006FBFA5CF5D9A84E680937701CA0103C0E4
:1010F000D092E800F5CF0F900F900F90DF91CF9135
:101100001F910F91FF90EF90DF90CF90BF90AF9025
:101110009F908F900895AF92BF92CF92DF92EF92FF
:10112000FF920F931F93CF93DF931F92CDB7DEB73C
:101130007C0169836A01590141E050E0BE016F5FA3
:101140007F4FFC0183810E94E5078C0197FD0BC056
:10115000F7018381A501B60180640E94E50797FD30
:1011600002C0800F911F0F90DF91CF911F910F91BF
:10117000FF90EF90DF90CF90BF90AF9008951F92B7
:101180000F920FB60F9211242F933F938F939F933B
:10119000AF93BF9380915E0190915F01A091600138
:1011A000B091610130915D0123E0230F2D3720F4D0
:1011B0000196A11DB11D05C026E8230F0296A11DB1
:1011C000B11D20935D0180935E0190935F01A09318
:1011D0006001B09361018091620190916301A091DF
:1011E0006401B09165010196A11DB11D809362015A
:1011F00090936301A0936401B0936501BF91AF9197
:101200009F918F913F912F910F900FBE0F901F9044
:1012100018958091550181116BC081E08093480140
:10122000809349012EE431E030934B0120934A0131
:1012300010924D0110924C0128E131E030934501AC
:10124000209344011092500110924F0110925201CC
:1012500010925101809353018093540181EC80934B
:101260004E010E946302FC0121818091480190E0BF
:10127000820F911D089724F081E08093550138C0BA
:10128000A281B381109729F484E491E0938382834F
:101290000EC018968D919C911997009711F0DC0162
:1012A000F8CF84E491E019969C938E9318978081EF
:1012B000809346018181809347019081809149010B
:1012C000890F808380E0909148018917A8F6A0914A
:1012D0004A01B0914B01A80FB11D9C91A181B0E0D2
:1012E000A050BF4F9C9391819F5F91838F5FEBCF05
:1012F00084E491E00895CF93DF93EC010E94090903
:10130000AE014C5F5F4F28E030E062E0DF91CF91AB
:101310000C948B080F931F93CF93DF93EB018A01FB
:101320000E9409099801AE0164E0DF91CF911F91FD
:101330000F910C948B081F93CF93DF93D82F61E00C
:1013400070E080E090E00E94AB0761E08AE00E94DC
:101350000F039D2F96959D27892F86958695982713
:10136000C92FC295CF70C927C095C17061E089E0CF
:101370000E946F0760E089E00E940F038BE891E014
:101380000197F1F761E088E00E946F0760E088E074
:101390000E940F0360E089E00E946F0762E089E02D
:1013A0000E946F0783E290E00197F1F760E08AE026
:1013B0000E940F0318E089E00E94E602892BD9F70A
:1013C0006D2F617088E00E940F03D69589E00E941E
:1013D000E602892BD9F3115071F789E00E94E602E9
:1013E000892BD9F76C2F88E00E940F0389E00E94B7
:1013F000E602892BD9F389E00E94E602892BD9F70E
:1014000060E088E00E946F0762E088E00E946F075A
:1014100088E00E94E602892BD9F789E00E94E60263
:10142000892BD9F789E00E94E602892BD9F388E05D
:101430000E94E602892BD9F3DF91CF911F91089585
:10144000EF92FF921F93CF93DF931CE0C0E0D0E0B8
:101450009BE4E92EF12C1150C9F0D695C79589E08F
:101460000E94E602892BD9F7C7010197F1F788E0BE
:101470000E94E602892B09F0D06289E00E94E60210
:10148000892BD9F3C7010197F1F7E5CFCE01DF91A1
:10149000CF911F91FF90EF9008950F931F93CF93DB
:1014A000DF93EC0141E00E9480048C01892B39F02C
:1014B000E881F9810680F781E02DCE010995C80108
:1014C000DF91CF911F910F910895FF920F931F937A
:1014D000CF93DF93EC01F62E0E944D0A8C01892BED
:1014E00071F040E06F2DCE010E948004892B39F00D
:1014F000E881F9810680F781E02DCE010995C801C8
:10150000DF91CF911F910F91FF900895CF93DF93BB
:10151000E091DC01F091DD010084F185E02D41E0F6
:10152000682F8CED91E00995EC01892B51F0E09149
:10153000DC01F091DD010680F781E02D8CED91E07A
:101540000995CE01DF91CF910895CF93DF93E0917C
:10155000DC01F091DD010480F581E02D8CED91E05E
:101560000995EC01892B51F0E091DC01F091DD014E
:101570000680F781E02D8CED91E00995CE01DF9199
:10158000CF910895CF93DF93EC01E8EFF1E020E0F5
:1015900030E0819191912F5F3F4F892B41F4220FD1
:1015A000331FF901EA50FE4FD183C08303C02430BA
:1015B000310579F7E091F601F091F7010190F081A2
:1015C000E02D48E050E068EF71E086EF91E009958A
:1015D000E6EFF1E0828193818C179D0711F413826D
:1015E0001282329681E0EE3FF807A1F7E091F60112
:1015F000F091F7010190F081E02D48E050E068EFB4
:1016000071E086EF91E0DF91CF910994FC01809128
:101610007C01811103C08FEF9FEF08959FB7F8946D
:1016200082E08093E9002091F20030E01216130668
:1016300014F421E030E02115310559F0289A84E6B0
:1016400080937B018091F10080838091F200882358
:1016500019F09FBFC90108958BE68093E800F9CF88
:10166000CF93DF931F92CDB7DEB76983DC01ED9195
:10167000FC910280F381E02D41E050E0BE016F5FFC
:101680007F4F09950F90DF91CF91089583E080936C
:10169000E9008091F200882319F08AE38093E80042
:1016A0000895CF93DF931F92CDB7DEB7FC018485F9
:1016B000958597FD05C02FEF3FEF358724870BC039
:1016C000CE0101960E94060B019719F4898190E0E2
:1016D00002C08FEF9FEF0F90DF91CF9108950F938E
:1016E0001F93CF93DF931F92CDB7DEB78C01FC0120
:1016F0008485958597FF0EC0CE0101960E94060B4A
:10170000019719F4298130E002C02FEF3FEFF80173
:1017100035872487F801848595850F90DF91CF91D7
:101720001F910F910895FC018485958597FD0BC04D
:101730009FB7F89482E08093E9008091F2009FBF08
:1017400090E0019608959FB7F89482E08093E900B5
:101750008091F2009FBF90E00895CF93DF93EC015A
:1017600080911301882331F083E00E94E507181669
:10177000190634F081E090E09B838A8380E090E05A
:10178000DF91CF910895109281011092800188EE2F
:1017900093E0A0E0B0E08093820190938301A09356
:1017A0008401B093850184E291E090937F0180935E
:1017B0007E018FEF9FEF90938B0180938A011092AF
:1017C000DF011092DE0184E391E09093DD018093CC
:1017D000DC018091D401811113C01092CF011092CD
:1017E000CE0187E892E09093D1018093D0018BE302
:1017F00090E09093D3018093D20181E08093D40153
:101800000E940909FC01A385B485109729F48EEC88
:1018100091E0948783870BC08D919C9111970097DD
:1018200011F0DC01F9CF8EEC91E08D939C9325852E
:1018300036858091D2019091D301820F931F9687B4
:10184000858782E491E09093F7018093F60180917F
:10185000EE01811113C01092E9011092E80182ECAF
:1018600092E09093EB018093EA0189E190E09093FC
:10187000ED018093EC0181E08093EE010E94090963
:10188000FC01A385B485109729F488EE91E0948734
:1018900083870BC08D919C911197009711F0DC010B
:1018A000F9CF88EE91E08D939C93258536858091C4
:1018B000EC019091ED01820F931F96878587089523
:1018C000CF93DF9300D000D01F92CDB7DEB77894CE
:1018D00084B5826084BD84B5816084BD85B5826035
:1018E00085BD85B5816085BD80916E0081608093E6
:1018F0006E0010928100809181008260809381004F
:10190000809181008160809381008091800081605E
:1019100080938000809191008260809391008091FB
:10192000910081608093910080919000816080930C
:1019300090008091C10084608093C1008091C100BB
:1019400082608093C1008091C10081608093C1005A
:101950008091C30081608093C3008091C000826049
:101960008093C0008091C20081608093C20080910A
:101970007A00846080937A0080917A0082608093FC
:101980007A0080917A00816080937A0080917A0059
:10199000806880937A0010927C0110927A011092F4
:1019A00079018091D70081608093D70080EA80938D
:1019B000D80089B5806189BD89B5826089BD09B4C7
:1019C00000FEFDCF61E070E080E090E00E94AB0798
:1019D0008091D8008F7C80618093D8008091E00056
:1019E000807F8093E0008091E1008E7E8093E10013
:1019F0008DE08093E200559A209A5D982898EEEF4A
:101A0000FFE7859194918B3F9C4D19F481E0809381
:101A1000780162E089E00E946F0762E088E00E943E
:101A20006F0761E08AE00E946F0788E0E8EFF1E06D
:101A3000DF011D928A95E9F7E091F601F091F70137
:101A40000190F081E02D48E050E068EF71E086EF12
:101A500091E00995E091DC01F091DD010480F581D0
:101A6000E02D8CED91E00995E091DC01F091DD0134
:101A70000680F781E02D8CED91E0099580917D0144
:101A8000E82FF0E0E958FD4FE49191E0980FEE2344
:101A900011F0892FF5CF80937D0160E0862E60E004
:101AA000962EDD24D3940E94200A7C0154E0F69403
:101AB000E7945A95E1F70E2DE98280E28E0D82308F
:101AC00010F0003F89F50E94200A44E09695879522
:101AD0004A95E1F7182F8A83803F61F0003E21F498
:101AE000823141F012E030C0013E09F021C1843161
:101AF00009F01EC10E94200A34E0969587953A9518
:101B0000E1F78B83003E09F018C11231E1F4803E09
:101B1000D1F40E94200A24E0969587952A95E1F752
:101B20008C838A8314E010C080E0E82FF0E0E9584D
:101B3000FD4FE49191E0980FEE2391F0E01709F446
:101B40006FC0892FF2CF13E08A818A3419F4809113
:101B50007D0163C08A3529F480917D018F5F5DC06E
:101B600011E08A81803F19F40E94A50ADAC00A3F79
:101B700009F4D7C06CE38CED91E00E94650AB701CF
:101B8000772794E0759567959A95E1F76A30710526
:101B900014F4605D01C0695C8CED91E00E94650AFF
:101BA0006E2D6F706A3010F4605D01C0695C8CED61
:101BB00091E00E94650AFE0132965F0101E0011783
:101BC00031F16BE38CED91E00E94650AD501FD9047
:101BD0005D016F2D70E084E0759567958A95E1F75A
:101BE0006A30710514F4605D01C0695C8CED91E0B0
:101BF0000E94650A6F2D6F706A3010F4605D01C03D
:101C0000695C8CED91E00E94650A0F5FD8CF6EE3AE
:101C10008CED91E00E94650A84C0882309F4AACF64
:101C200090E08131910508F058C0FC01EB59FF4F5D
:101C30000C949F0E83EE0E94860A65E604C080EE37
:101C40000E94860A68E78CED91E00E944D0A0E948E
:101C5000A50A48C080EE0E94860A63E6F4CF80EEB3
:101C60000E94860A66E7EFCF80EE0E94860A66E64B
:101C7000EACF80EE0E94860A61E6E5CF80EE0E9400
:101C8000860A63E7E0CF80EE0E94860A69E7DBCF31
:101C900080EE0E94860A6AE7D6CF80EE0E94860A0E
:101CA00060E7D1CF86EB90E010C08DEC90E00DC0E6
:101CB00085EB90E00AC082EE0E94860A60E2C3CF04
:101CC00082E991E002C082EE90E00E94C20A0AC05E
:101CD00080EE0E94860A6AE6B6CF6FE38CED91E053
:101CE0000E94650A6AE070E080E090E00E94AB0725
:101CF0008DEE0E949B090E94200A10910B01812FFA
:101D00000E949B09143019F4D0920B0104C0F12EEB
:101D1000FF0CF0920B0164E670E080E090E00E941E
:101D2000AB078114910409F4BECE0E940000BBCE23
:101D300012E0003F09F015CF17CF13E0FACFEE0FF6
:101D4000FF1F0590F491E02D099481E090E0F89454
:081D50000C94AA0EF894FFCFD9
:101D580000C18081000000FFFFFFFF0100E10000DB
:101D680000000000000000006403E703A7038B03E2
:101D780000000000300BAD0B930B510B6F0B460BA3
:101D880000000000650A380236047B09450400009B
:041D980000008A09B4
:00000001FF
